:1000000000010001000100010001000100010001E8
:1000100000010001000100010001000100010001D8
:1000200000010001000100010001000100010001C8
:1000300000010001000100010001000100010001B8
:1000400000010001000100010001000100010001A8
:100050000001000100010001000100010001000198
:100060000001000100010001000100010001000188
:100070000001000100010300010001000100010076
:100080000100010001000100010001000100010068
:100090000100010001000100010001000100010058
:1000A0000100010001000100010001000100010048
:1000B0000100010001000100010001000100010038
:1000C0000100010001000100010001000100010028
:0E00D00001000100010001000100011E1E1FC1
:00000001FF
